{
  "_format": "hh3-artifact-1",
  "contractName": "KipuBank",
  "sourceName": "contracts/KipuBank.sol",
  "abi": [
    {
      "inputs": [
        {
          "internalType": "uint256",
          "name": "bankCap",
          "type": "uint256"
        },
        {
          "internalType": "uint256",
          "name": "maxWithdrawLimit",
          "type": "uint256"
        }
      ],
      "stateMutability": "nonpayable",
      "type": "constructor"
    },
    {
      "inputs": [],
      "name": "BankCapReachedError",
      "type": "error"
    },
    {
      "inputs": [
        {
          "internalType": "address",
          "name": "sender",
          "type": "address"
        },
        {
          "internalType": "uint256",
          "name": "funds",
          "type": "uint256"
        },
        {
          "internalType": "uint256",
          "name": "amount",
          "type": "uint256"
        }
      ],
      "name": "InsufficientFundsError",
      "type": "error"
    },
    {
      "inputs": [],
      "name": "ReentrancyGuardReentrantCall",
      "type": "error"
    },
    {
      "inputs": [],
      "name": "TransferError",
      "type": "error"
    },
    {
      "inputs": [
        {
          "internalType": "address",
          "name": "sender",
          "type": "address"
        },
        {
          "internalType": "uint256",
          "name": "amount",
          "type": "uint256"
        }
      ],
      "name": "WithdrawLimitExceededError",
      "type": "error"
    },
    {
      "anonymous": false,
      "inputs": [
        {
          "indexed": false,
          "internalType": "address",
          "name": "addr",
          "type": "address"
        },
        {
          "indexed": false,
          "internalType": "uint256",
          "name": "amount",
          "type": "uint256"
        }
      ],
      "name": "DepositSuccess",
      "type": "event"
    },
    {
      "anonymous": false,
      "inputs": [
        {
          "indexed": false,
          "internalType": "address",
          "name": "addr",
          "type": "address"
        },
        {
          "indexed": false,
          "internalType": "uint256",
          "name": "amount",
          "type": "uint256"
        }
      ],
      "name": "WithdrawSuccess",
      "type": "event"
    },
    {
      "inputs": [],
      "name": "deposit",
      "outputs": [],
      "stateMutability": "payable",
      "type": "function"
    },
    {
      "inputs": [],
      "name": "getBalance",
      "outputs": [
        {
          "internalType": "uint256",
          "name": "",
          "type": "uint256"
        }
      ],
      "stateMutability": "view",
      "type": "function"
    },
    {
      "inputs": [],
      "name": "getDepositCount",
      "outputs": [
        {
          "internalType": "uint256",
          "name": "",
          "type": "uint256"
        }
      ],
      "stateMutability": "view",
      "type": "function"
    },
    {
      "inputs": [
        {
          "internalType": "address",
          "name": "addr",
          "type": "address"
        }
      ],
      "name": "getFundsForAddress",
      "outputs": [
        {
          "internalType": "uint256",
          "name": "",
          "type": "uint256"
        }
      ],
      "stateMutability": "view",
      "type": "function"
    },
    {
      "inputs": [],
      "name": "getMyFunds",
      "outputs": [
        {
          "internalType": "uint256",
          "name": "",
          "type": "uint256"
        }
      ],
      "stateMutability": "view",
      "type": "function"
    },
    {
      "inputs": [],
      "name": "getWithdrawCount",
      "outputs": [
        {
          "internalType": "uint256",
          "name": "",
          "type": "uint256"
        }
      ],
      "stateMutability": "view",
      "type": "function"
    },
    {
      "inputs": [
        {
          "internalType": "uint256",
          "name": "amount",
          "type": "uint256"
        }
      ],
      "name": "withdraw",
      "outputs": [],
      "stateMutability": "nonpayable",
      "type": "function"
    },
    {
      "stateMutability": "payable",
      "type": "receive"
    }
  ],
  "bytecode": "0x60c06040525f6002555f600355348015610017575f5ffd5b506040516105c23803806105c2833981016040819052610036916100b5565b60015f558082116100a75760405162461bcd60e51b815260206004820152603160248201527f42616e6b20636170206d7573742062652067726561746572207468616e206d616044820152703c103bb4ba34323930bb903634b6b4ba1760791b606482015260840160405180910390fd5b60809190915260a0526100d7565b5f5f604083850312156100c6575f5ffd5b505080516020909101519092909150565b60805160a0516104c36100ff5f395f81816101e4015261021f01525f61015601526104c35ff3fe608060405260043610610071575f3560e01c80639323a6ac1161004c5780639323a6ac146100d75780639363a141146100f7578063d0e30db01461010b578063f4bb11f414610113575f5ffd5b806312065fe0146100845780632e1a7d4d146100a457806347d04c71146100c3575f5ffd5b366100805761007e610147565b005b5f5ffd5b34801561008f575f5ffd5b50475b60405190815260200160405180910390f35b3480156100af575f5ffd5b5061007e6100be3660046103f1565b6101da565b3480156100ce575f5ffd5b50600354610092565b3480156100e2575f5ffd5b50335f90815260016020526040902054610092565b348015610102575f5ffd5b50600254610092565b61007e610147565b34801561011e575f5ffd5b5061009261012d366004610408565b6001600160a01b03165f9081526001602052604090205490565b5f6101523447610449565b90507f0000000000000000000000000000000000000000000000000000000000000000811115610195576040516362e3e76d60e11b815260040160405180910390fd5b61019f333461034a565b604080513381523460208201527f60bbf3f279de4eb569cec9565dbd645a7d269bef7d4b20083d8da32ddd6e9460910160405180910390a150565b6101e261038e565b7f000000000000000000000000000000000000000000000000000000000000000081111561025057604051632e84ba3960e21b81523360048201527f000000000000000000000000000000000000000000000000000000000000000060248201526044015b60405180910390fd5b335f908152600160205260409020548082111561029057604051633905406960e21b81523360048201526024810182905260448101839052606401610247565b61029a33836103b6565b60408051338152602081018490527f95e1b0070dbccc052f124fa5143644dca4cc74c53bf1d0fe68ff7295f61cdc0c910160405180910390a160405133905f90829085908381818185875af1925050503d805f8114610314576040519150601f19603f3d011682016040523d82523d5f602084013e610319565b606091505b505090508061033b576040516313ff771f60e21b815260040160405180910390fd5b50505061034760015f55565b50565b6001600160a01b0382165f9081526001602052604081208054839290610371908490610449565b909155505060028054905f61038583610462565b91905055505050565b60025f54036103b057604051633ee5aeb560e01b815260040160405180910390fd5b60025f55565b6001600160a01b0382165f90815260016020526040812080548392906103dd90849061047a565b909155505060038054905f61038583610462565b5f60208284031215610401575f5ffd5b5035919050565b5f60208284031215610418575f5ffd5b81356001600160a01b038116811461042e575f5ffd5b9392505050565b634e487b7160e01b5f52601160045260245ffd5b8082018082111561045c5761045c610435565b92915050565b5f6001820161047357610473610435565b5060010190565b8181038181111561045c5761045c61043556fea264697066735822122037a4721259fcbae28d684da689eda4aebb8330b0ab751ce0fbc8a2b42fbd973964736f6c634300081c0033",
  "linkReferences": {},
  "deployedLinkReferences": {},
  "immutableReferences": {
    "81": [
      {
        "length": 32,
        "start": 342
      }
    ],
    "84": [
      {
        "length": 32,
        "start": 484
      },
      {
        "length": 32,
        "start": 543
      }
    ]
  },
  "inputSourceName": "project/contracts/KipuBank.sol",
  "buildInfoId": "solc-0_8_28-48c031f6103d4ed20d57ea42c9df1d3d4d5bee3c"
}